:100000000C942C080C9473080C9473080C947308CB
:100010000C9473080C9473080C9473080C94730874
:100020000C9473080C9473080C94D2220C94A5239E
:100030000C94DF190C9473080C9473080C947308D7
:100040000C9473080C9473080C9473080C94730844
:100050000C9473080C94401A0C9473080C94730855
:100060000C9473080C9473080C9473080C94730824
:100070000C9473080C9473080C9473080C94730814
:100080000C9473080C9473080C9473080C94730804
:100090000C9473080C9473080C9473080C947308F4
:1000A0000C9473080C9473080C94730829001E00B8
:1000B0001F0020002100220023002400250026002C
:1000C00027002D002E0089002A0000002B001400BC
:1000D0001A000800150017001C0018000C00120080
:1000E00013002F0030000000310000003900040030
:1000F0001600070009000A000B000D000E000F009B
:10010000330034003200280000000000E1006400E9
:100110001D001B000600190005001100100036002C
:10012000370038008700E50052000000E000E300DF
:10013000E2000000000000002C00000000000000B1
:10014000E600E4000151500051004F0000000000A3
:10015000000000000000000000000000000000009F
:100160000000000000000000000049000000000046
:10017000000000000000000000000000000000007F
:10018000000000000000000000004C0035003A00B4
:100190003B003C003D003E003F004000410042006B
:1001A000430044004500010001000000010001007F
:1001B00001000100010001000100010046004700AC
:1001C00048000100010000000100000001000100E2
:1001D0000100010001000100010001004A004B0084
:1001E0000100010001000100000000000100010009
:1001F00001000100010001000100010001004D00AB
:100200004E000100010001004B0000000100010050
:1002100001000000000000000100000000000000DC
:100220000100010001004A004E004D0000000000E6
:1002300000000000000000000000000000000000BE
:10024000000000000000000000000070000000003E
:10025000000000000000000000000000000000009E
:10026000000000000000000000000100010001008B
:100270000100010001000100010001000100010076
:100280000100010001000100010000000100010067
:100290000100010001000100010001000100010056
:1002A0000100010001000000010000000100010048
:1002B0000100010001000100010001000100010036
:1002C0000100010001000100000000000100010028
:1002D0000100010001000100010001000100010016
:1002E0000100010001000100010000000100010007
:1002F00001000000000000000100000000000000FC
:1003000001000100010001000100010000000000E7
:1003100000000000000000000000000000000000DD
:1003200000000000000000000000010000000000CC
:1003300000000000000000000000000000000000BD
:1003400000000000000000000000010001000100AA
:100350000100010001000100010001000100010095
:100360000100010001000100010000000100010086
:100370000100010001000100010001000100010075
:100380000100010001000000010000000100010067
:100390000100010001000100010001000100010055
:1003A0000100010001000100000000000100010047
:1003B0000100010001000100010001000100010035
:1003C0000100010001000100010000000100010026
:1003D000010000000000000001000000000000001B
:1003E0000100010001000100010001000000000007
:1003F00000000000000000000000000000000000FD
:1004000000000000000000000000010000000000EB
:1004100000000000000000000000000000000000DC
:1004200000000000000000000000010001000100C9
:1004300001000100010001000100010001000100B4
:1004400001000100010001000100000001000100A5
:100450000100010001000100010001000100010094
:100460000100010001000000010000000100010086
:100470000100010001000100010001000100010074
:100480000100010001000100000000000100010066
:100490000100010001000100010001000100010054
:1004A0000100010001000100010000000100010045
:1004B000010000000000000001000000000000003A
:1004C0000100010001000100010001000000000026
:1004D000000000000000000000000000000000001C
:1004E000000000000000000000000100000000000B
:1004F00000000000000000000000000000000000FC
:1005000000000000000000000000010001000100E8
:1005100001000100010001000100010001000100D3
:1005200001000100010001000100000001000100C4
:1005300001000100010001000100010001000100B3
:1005400001000100010000000100000001000100A5
:100550000100010001000100010001000100010093
:100560000100010001000100000000000100010085
:100570000100010001000100010001000100010073
:100580000100010001000100010000000100010064
:100590000100000000000000010000000000000059
:1005A0000100010001000100010001000000000045
:1005B000000000000000000000000000000000003B
:1005C000000000000000000000000100000000002A
:1005D000000000000000000000000000000000001B
:1005E0000000000000000000000001000100010008
:1005F00001000100010001000100010001000100F3
:1006000001000100010001000100000001000100E3
:1006100001000100010001000100010001000100D2
:1006200001000100010000000100000001000100C4
:1006300001000100010001000100010001000100B2
:1006400001000100010001000000000001000100A4
:100650000100010001000100010001000100010092
:100660000100010001000100010000000100010083
:100670000100000000000000010000000000000078
:100680000100010001000100010001000000000064
:10069000000000000000000000000000000000005A
:1006A0000000000000000000000001000000000049
:1006B000000000000000000000000000000000003A
:1006C0000000000000000000000001000100010027
:1006D0000100010001000100010001000100010012
:1006E0000100010001000100010000000100010003
:1006F00001000100010001000100010001000100F2
:1007000001000100010000000100000001000100E3
:1007100001000100010001000100010001000100D1
:1007200001000100010001000000000001000100C3
:1007300001000100010001000100010001000100B1
:1007400001000100010001000100000001000100A2
:100750000100000000000000010000000000000097
:100760000100010001000100010001000000000083
:100770000000000000000000000000000000000079
:100780000000000000000000000001000000000068
:100790000000000000000000000000000000000059
:1007A0000000000000000000000001000100010046
:1007B0000100010001000100010001000100010031
:1007C0000100010001000100010000000100010022
:1007D0000100010001000100010001000100010011
:1007E0000100010001000000010000000100010003
:1007F00001000100010001000100010001000100F1
:1008000001000100010001000000000001000100E2
:1008100001000100010001000100010001000100D0
:1008200001000100010001000100000001000100C1
:1008300001000000000000000100000000000000B6
:1008400001000100010001000100010000000000A2
:100850000000000000000000000000000000000098
:100860000000000000000000000001000000000087
:100870000000000000000000000000000000000078
:100880000000000000000000000001000100010065
:100890000100010001000100010001000100010050
:1008A0000100010001000100010000000100010041
:1008B0000100010001000100010001000100010030
:1008C0000100010001000000010000000100010022
:1008D0000100010001000100010001000100010010
:1008E0000100010001000100000000000100010002
:1008F00001000100010001000100010001000100F0
:1009000001000100010001000100000001000100E0
:1009100001000000000000000100000000000000D5
:1009200001000100010001000100010000000000C1
:1009300000000000000000000000000000000000B7
:1009400000000000000000000000010000000000A6
:100950000000000000000000000000000000000097
:100960000000000000000000000001000100010084
:10097000010001000100010001000100010001006F
:100980000100010001000100010000000100010060
:10099000010001000100010001000100010001004F
:1009A0000100010001000000010000000100010041
:1009B000010001000100010001000100010001002F
:1009C0000100010001000100000000000100010021
:1009D000010001000100010001000100010001000F
:1009E0000100010001000100010000000100010000
:1009F00001000000000000000100000000000000F5
:100A000001000100010001000100010000000000E0
:100A100000000000000000000000000000000000D6
:100A200000000000000000000000010000000000C5
:100A300000000000000000000000000000000000B6
:100A400000000000000000000000010001000100A3
:100A5000010001000100010001000100010001008E
:100A6000010001000100010001000000010001007F
:100A7000010001000100010001000100010001006E
:100A80000100010001000000010000000100010060
:100A9000010001000100010001000100010001004E
:100AA0000100010001000100000000000100010040
:100AB000010001000100010001000100010001002E
:100AC000010001000100010001000000010001001F
:100AD0000100000000000000010000000000000014
:100AE0000100010001000100010001000000000000
:100AF00000000000000000000000000000000000F6
:100B000000000000000000000000010000000000E4
:100B100000000000000000000000000000000000D5
:100B200000000000000000000000010001000100C2
:100B300001000100010001000100010001000100AD
:100B4000010001000100010001000000010001009E
:100B5000010001000100010001000100010001008D
:100B6000010001000100000001000000010001007F
:100B7000010001000100010001000100010001006D
:100B8000010001000100010000000000010001005F
:100B9000010001000100010001000100010001004D
:100BA000010001000100010001000000010001003E
:100BB0000100000000000000010000000000000033
:100BC000010001000100010001000100000000001F
:100BD0000000000000000000000000000000000015
:100BE0000000000000000000000001000000000004
:100BF00000000000000000000000000000000000F5
:100C000000000000000000000000010001000100E1
:100C100001000100010001000100010001000100CC
:100C200001000100010001000100000001000100BD
:100C300001000100010001000100010001000100AC
:100C4000010001000100000001000000010001009E
:100C5000010001000100010001000100010001008C
:100C6000010001000100010000000000010001007E
:100C7000010001000100010001000100010001006C
:100C8000010001000100010001000000010001005D
:100C90000100000000000000010000000000000052
:100CA000010001000100010001000100000000003E
:100CB0000000000000000000000000000000000034
:100CC0000000000000000000000001000000000023
:100CD0000000000000000000000000000000000014
:100CE0000000000000000000000001000100010001
:100CF00001000100010001000100010001000100EC
:100D000001000100010001000100000001000100DC
:100D100001000100010001000100010001000100CB
:100D200001000100010000000100000001000100BD
:100D300001000100010001000100010001000100AB
:100D4000010001000100010000000000010001009D
:100D5000010001000100010001000100010001008B
:100D6000010001000100010001000000010001007C
:100D70000100000000000000010000000000000071
:100D8000010001000100010001000100000000005D
:100D90000000000000000000000000000000000053
:100DA0000000000000000000000001000000000042
:100DB0000000000000000000000000000000000033
:100DC0000000000000000000000001000100010020
:100DD000010001000100010001000100010001000B
:100DE00001000100010001000100000001000100FC
:100DF00001000100010001000100010001000100EB
:100E000001000100010000000100000001000100DC
:100E100001000100010001000100010001000100CA
:100E200001000100010001000000000001000100BC
:100E300001000100010001000100010001000100AA
:100E4000010001000100010001000000010001009B
:100E50000100000000000000010000000000000090
:100E6000010001000100010001000100000000007C
:100E70000000000000000000000000000000000072
:100E80000000000000000000000001000000000061
:100E90000000000000000000000000000000000052
:100EA00000000000000000000000010012036B00C1
:100EB0006500790062006F0061007200640000004C
:100EC000160371006D006B006200750069006C0014
:100ED00064006500720000000403090409026D004B
:100EE000040100A0FA090400000103010100092126
:100EF000110100012240000705810308000A0904CE
:100F000001000103010200092111010001224D002D
:100F10000705820308000A0904020001030000001B
:100F20000921110100012236000705830308000A88
:100F3000090403000103000000092111010001223E
:100F40003900070584032000011201100100000090
:100F500008EDFE606001000102000105010906A123
:100F600001050719E029E71500250195087501819C
:100F7000020508190129059505750191029501756C
:100F80000391010507190029F71500250195F8754A
:100F9000018102C005010980A10185021601002618
:100FA00003001A81002A8300751095018100C00595
:100FB0000C0901A1018503160100269C021A0100FB
:100FC0002A9C02751095018100C005010902A1014A
:100FD0000901A1000509190129051500250195053B
:100FE00075018102950175038101050109300931FF
:100FF0001581257F95027508810609381581257FA1
:10100000950175088106050C0A38021581257F9522
:101010000175088106C0C005010906A1010507196F
:10102000E029E715002501950875018102950175F4
:101030000881010508190129059505750191029599
:1010400001750391010507190029FF150026FF000E
:10105000950675088100C00011241FBECFEFDAE0AD
:10106000DEBFCDBF04B603FE27C080917002909111
:101070007102A0917202B09173028730904BA74029
:10108000B04BD1F410927002109271021092720261
:101090001092730214BE84B7877F84BF0FB6F89492
:1010A000A895809160008861809360001092600034
:1010B0000FBEE0E0F8E3099511E0A0E0B1E0E4E262
:1010C000FEE402C005900D92AE33B107D9F722E0DD
:1010D000AEE3B1E001C01D92A037B207E1F70E9474
:1010E00028200C94E4260C94000090E080E0089501
:1010F0000895089581E0089581FF03C0279A2F98ED
:1011000008952798FCCF81E008950C947A080E94F6
:1011100033122FEF84E39CE0215080409040E1F7B0
:1011200000C000000C94631AEF92FF920F931F937C
:10113000CF93DF938C01FC01E080F18080918401EA
:10114000811140C082818823C1F1C7010E94B51777
:10115000C82F682FC7010E946117B7018C2F0E940A
:10116000CC09EC01B8010E948508882309F44BC022
:10117000B801CE010E94D60B882309F444C0C531C2
:10118000F0E7DF0720F5C23080E7D80708F04DC050
:10119000C115E0E7DE0791F1C130D047E1F181E010
:1011A0008093400180934101C801DF91CF911F914D
:1011B0000F91FF90EF900C948308C7010E948D1748
:1011C000C82FCBCFC7010E94B517B701C8CFCC330A
:1011D00080E7D80709F49BC0CD33D04701F7F80169
:1011E0008281882309F4BAC0109241010E940F1A2B
:1011F00090933F0180933E0180E296C0F801828186
:1012000081110E94870880E0DF91CF911F910F919B
:10121000FF90EF900895F80182818823A1F38091D7
:101220003002816080933002EECFF8018281882302
:1012300009F4BACF0E947019811102C00E94561998
:101240000E948D1990E09093620280936102FE01EA
:10125000E350F047809161028160E231F10538F49A
:10126000EA51F94D0C94942680916102826080933A
:101270006102809161020E9491190E943312C3CFD2
:10128000809161028460F3CF809161028860EFCF2A
:10129000809161028061EBCF809161028062E7CF33
:1012A000809161028064E3CF809161028068DFCF2A
:1012B000809161028C60DBCF809161028E7FD7CFFD
:1012C000809161028D7FD3CF809161028B7FCFCFE0
:1012D00080916102877FCBCF809161028F7EC7CFE3
:1012E000809161028F7DC3CF809161028F7BBFCFE0
:1012F000809161028F77BBCF80916102837FB7CFEE
:1013000090916102892F97FB87F98058B0CFF8013F
:101310008281882361F0109240010E940F1A9093FD
:101320003F0180933E0182E00E94980F6CCF809134
:10133000400181110FC080913E0190913F010E94B8
:101340001B1A883C910530F486E20E946D0E86E2FD
:101350000E94490F82E00E949F0F55CF809141016A
:1013600081110FC080913E0190913F010E941B1A94
:10137000883C910530F487E20E946D0E87E20E945E
:10138000490F80E2E8CF0C94250C0C94270C0C94A8
:101390007C080C94C7090895E72FF0E097E0899F37
:1013A000E00DF11D112484E0EE0FFF1F8A95E1F797
:1013B000E60FF11DEE0FFF1FE455FF4F859194914D
:1013C0000895FC01EE0FFF1FE455F14F85919491B4
:1013D00008950E94CC090E945A0B9C01811540E49B
:1013E000940708F097C0211580E3380708F0FAC089
:1013F000203E310508F074C0203C310508F0E5C0FE
:10140000283A310588F4253A310508F0E2C0213048
:10141000310509F477C0C9010497813A910508F4B0
:1014200071C030E020E06EC0C901885A910945972B
:10143000C0F7283A310509F4FEC0293A310509F40C
:10144000FDC02A3A310509F4FCC02B3A310509F4F4
:10145000FBC02C3A310509F4FAC02B3B310509F4E5
:10146000F9C02C3B310509F4F8C02D3A310509F4D7
:10147000F7C0203B310509F4F6C02E3A310509F4D6
:10148000F5C02F3A310509F4F4C0213B310509F4C8
:10149000F3C0223B310509F4F2C0233B310509F4C6
:1014A000F1C0243B310509F4F0C0253B310509F4B6
:1014B000EFC0263B310509F4EEC0273B310509F4A6
:1014C000EDC0283B310509F4ECC0293B310509F496
:1014D000EBC02A3B310509F4EAC020E034E412C035
:1014E000211590E2390780F42F3F310509F050F4BF
:1014F000283E310538F0C901805F91093065409779
:1015000008F08FCFC9010895C9019F700E94E109B9
:101510009C01F8CF8115944508F041C0211583E561
:10152000380708F06AC0211592E5390738F521150A
:1015300041E5340708F05CC0211580E5380708F460
:1015400054C0C90134E0969587953A95E1F78370C8
:10155000422F46954695437090E2499FA001112481
:10156000582B822F837021E030E002C0220F331FFE
:101570008A95E2F7242B352B3C68C4CFC9018370D0
:10158000992741E050E002C0440F551F8A95E2F7C9
:101590002695269580E2289F90011124EBCF2115F6
:1015A00096E5390748F4922F882721153545C8F567
:1015B0009C01246F306AA6CFC90190563F708115F7
:1015C000904108F02ECF30629DCFC901805C910917
:1015D0009DCF253A310549F1263A310549F522E8F2
:1015E00030E490CF3327306C8DCF3F70306A8ACF94
:1015F000322F2227216F306A85CFC9018370992746
:1016000041E050E002C0440F551F8A95E2F726954D
:10161000269580E2289F90011124242B352B3A68CF
:1016200071CF88279F719C01CECF21E830E46ACF2B
:1016300023E830E467CF22EE34E464CF29EE34E4CB
:1016400061CF2AEE34E45ECF25EB34E45BCF26EBAA
:1016500034E458CF23EB34E455CF24EB34E452CFB9
:1016600027EB34E44FCF2CEC34E44CCF2DEC34E4B6
:1016700049CF23E835E446CF2AE835E443CF22E9D1
:1016800035E440CF24E935E43DCF21E236E43ACFDA
:1016900023E236E437CF24E236E434CF25E236E4E1
:1016A00031CF26E236E42ECF27E236E42BCF2AE2F2
:1016B00036E428CF803E910581F1C8F4813391054D
:1016C00009F462C048F48932910509F456C08A329F
:1016D000910509F460C0089589339105B9F0823805
:1016E0009105A1F08533910509F440C00895863E27
:1016F000910561F138F4823E9105B1F0833E910588
:10170000E1F00895873E910551F10895209161021D
:101710002370D9F080EE90E008952091610220FFBF
:1017200014C089E390E008952091610222FF0DC06A
:1017300024FD09C083EE90E008952091610222FD0E
:1017400031C024FF02C090E080E008952091610242
:1017500023FFFBCF24FDF7CF87EE90E00895209183
:10176000610223FFEECF86EE90E0089520916102A2
:1017700025FFEBCF89E290E008952091610225FFDB
:10178000E4CF85E390E008952091610226FFDDCF4C
:101790008AE290E008952091610226FFD6CF81E38E
:1017A00090E0089582EE90E0089508950F931F93BE
:1017B000CF938C01FB018281811106C0C1E08C2F87
:1017C000CF911F910F910895C0914F01C11125C074
:1017D0000531104799F70E94D50B81E080934F01A6
:1017E0000E940F1A90934E0180934D011092420176
:1017F000109244011092430110924601109245014B
:10180000109248011092470110924A01109249012A
:1018100010924C0110924B01D2CF80914D019091CA
:101820004E010E941B1A883C910540F680914201AE
:10183000E82FF0E0EE0FFF1FED5BFE4F11830083FA
:101840008F5F80934201C0E0BACF0C9478080C946B
:10185000790885B7806885BF85B7806885BFA3E2B2
:10186000B1E061E070E08D91E82FE295EF70F0E07B
:1018700041A18F709B0101C0220F8A95EAF7922F38
:101880009095942391A382A1822B82A381E0AA3216
:10189000B80749F7A3E1B1E061E070E08D91E82F6E
:1018A000E295EF70F0E041A18F709B0101C0220F23
:1018B0008A95EAF7922F9095942391A382A1822B87
:1018C00082A381E0A332B80749F7EEE5F1E0A0E595
:1018D000B1E08CE691E0119211921D921D928E174B
:1018E0009F07C9F70C94C3092F923F924F925F92C2
:1018F0006F927F928F929F92AF92BF92CF92DF9220
:10190000EF92FF920F931F93CF93DF9300E511E0C7
:1019100083E2C82E81E0D82E1801EE24E394F12C46
:1019200066246394D1018D909D901D011E921E929C
:10193000E60189916E01E82FE295EF70F0E091A148
:101940008F70970101C0220F8A95EAF7892F822BA9
:1019500081A382A1722E7094872182A3D0EADA95A6
:10196000F1F763E171E090E080E0EB015990BE0196
:10197000452D42954F7050E0EA0148A0AD90BC90D3
:101980001197552D5F70E70102C0CC0FDD1F5A95EE
:10199000E2F7AE01442109F059C0A701082E02C0A8
:1019A000440F551F0A94E2F74A295B2911965C936C
:1019B0004E93019680319105C1F681A1782271A2E2
:1019C00082A1282B22A38D919C918816990641F023
:1019D00060926C010E940F1A90936E0180936D01CA
:1019E000DEE52D16D1E03D0609F09CCF80916C011B
:1019F0008823B1F080916D0190916E010E941B1AB5
:101A0000069770F0EEE5F1E0D8018D919D918D0182
:101A100081939193B1E00E351B07B1F710926C01E1
:101A20000E94C50981E0DF91CF911F910F91FF9036
:101A3000EF90DF90CF90BF90AF909F908F907F906E
:101A40006F905F904F903F902F90089550E040E04E
:101A5000ABCFE82FF0E0EE0FFF1FE25AFE4F808180
:101A6000918108950895909374018093730108956E
:101A7000E0917301F0917401309721F00190F081B1
:101A8000E02D099480E00895E0917301F0917401D4
:101A9000309721F00280F381E02D09940895E091C0
:101AA0007301F0917401309721F00480F581E02DED
:101AB0000994089520917101309172012817390716
:101AC00071F09093720180937101E0917301F09134
:101AD0007401309721F00680F781E02D0994089574
:101AE00020916F01309170012817390771F09093A0
:101AF000700180936F01E0917301F0917401309750
:101B000021F00084F185E02D0994089508950C9446
:101B1000860D0E94061A0E94290C0C94D01A5F921E
:101B20006F927F928F929F92AF92BF92CF92DF92ED
:101B3000EF92FF920F931F93CF93DF9300D000D0CB
:101B40000F92CDB7DEB70E94740C96E7A92E91E0F4
:101B5000B92E10E000E088248394912C502E802F21
:101B60000E94290D7C01F501C190D1905F01C8163A
:101B7000D90609F45DC08091300281FD0E94320DCA
:101B800090E080E0CE24DF243401082E02C0660CF1
:101B9000771C0A94E2F7960126213721232B09F4BA
:101BA00042C089835A82E620F72081E0EF2809F4B9
:101BB00080E08B830E940F1A8160782F9D838C8335
:101BC00049815A816B818D810E94440E000F111F43
:101BD000F801EA58FE4F808191816826792671824A
:101BE00060820E947D1D0E94380D909175018917B9
:101BF000B1F10E94380D809375010F900F900F90F6
:101C00000F900F90DF91CF911F910F91FF90EF9068
:101C1000DF90CF90BF90AF909F908F907F906F900C
:101C20005F900C94C90901968031910509F0ACCF01
:101C30000F5F1F4F0730110509F090CF8FEF898399
:101C40008A831B820E940F1A8160782F9D838C8368
:101C500049815A816B818D810E94440EC2CF0F90C1
:101C60000F900F900F900F90DF91CF911F910F91D8
:101C7000FF90EF90DF90CF90BF90AF909F908F90AC
:101C80007F906F905F900895CF93DF93CDB7DEB7CD
:101C90002B970FB6F894DEBF0FBECDBF4F8358878A
:101CA00069877A878B871E8285E0FE013796DE0181
:101CB000119601900D928A95E1F749815A816B81C5
:101CC0007C818D819E812B960FB6F894DEBF0FBE6E
:101CD000CDBFDF91CF910C94BB14882309F4D8C0F9
:101CE000823871F40E94380D81FDD2C089E30E94D0
:101CF0005D180E94271989E30E949A180C942719ED
:101D0000833859F40E94380D80FDC2C083E50E94DB
:101D10005D180E94271983E5EFCF843859F40E949B
:101D2000380D82FDB5C087E40E945D180E94271916
:101D300087E4E2CF9CEF980F913A18F40E945D1867
:101D4000DDCF90E2980F983050F4877091E001C099
:101D5000990F8A95EAF7892F0E94DE18CFCF9BE56D
:101D6000980F933070F4853A31F0863A39F083E871
:101D700090E00C945A0D81E890E0FBCF82E890E06F
:101D8000F8CF98E5980F953108F082C0883A09F4A9
:101D900040C0893A09F440C08A3A09F440C08B3AFD
:101DA00009F440C08C3A09F440C08B3B09F440C0B0
:101DB0008C3B09F440C08D3A09F440C0803B09F4E3
:101DC00040C08E3A09F440C08F3A09F440C0813BCC
:101DD00009F440C0823B09F440C0833B09F440C091
:101DE000843B09F440C0853B09F440C0863B09F4BC
:101DF00040C0873B09F440C0883B09F440C0893BA0
:101E000009F440C08A3B09F440C090E080E00C94A3
:101E1000700D82EE90E0FBCF89EE90E0F8CF8AEE75
:101E200090E0F5CF85EB90E0F2CF86EB90E0EFCF3E
:101E300083EB90E0ECCF84EB90E0E9CF87EB90E090
:101E4000E6CF8CEC90E0E3CF8DEC90E0E0CF83E840
:101E500091E0DDCF8AE891E0DACF82E991E0D7CF57
:101E600084E991E0D4CF81E292E0D1CF83E292E0A5
:101E7000CECF84E292E0CBCF85E292E0C8CF86E27B
:101E800092E0C5CF87E292E0C2CF8AE292E0BFCF74
:101E90000895882309F44BC0823871F40E94380DEC
:101EA00081FF45C089E30E945D180E94271989E3DC
:101EB0000E949A180C942719833859F40E94380DFF
:101EC00080FF35C083E50E945D180E94271983E5D5
:101ED000EFCF843859F40E94380D82FF28C087E480
:101EE0000E945D180E94271987E4E2CF9CEF980FAB
:101EF000913AF0F290E2980F983050F4877091E0A8
:101F000001C0990F8A95EAF7892F0E94E418D2CF71
:101F10009BE5980F933020F490E080E00C945A0DEC
:101F2000885A853120F490E080E00C94700D08957B
:101F3000882321F00E94DE180C9427190895882325
:101F400021F00E94E4180C94271908958F929F9213
:101F5000AF92BF92DF92EF92FF920F931F93CF93B6
:101F6000DF9300D000D00F92CDB7DEB77C016D8338
:101F70007983FC01058102950F70128111110E9475
:101F8000FD180E945618D82E882371F01123A1F055
:101F90008D81805E883080F082E00E9440180E942F
:101FA000561891E0D82ED926E981E295EF70F0E03D
:101FB000E850F94D0C949426D12CF6CF09810F707E
:101FC000F981F07F11F00295007F1123B1F0002319
:101FD00061F08D81805E883018F02D81211109C05B
:101FE000802F0E94DE180E9427198D810E946D0E9D
:101FF00015C0802F0E94EF18F6CF8D810E94490FE7
:10200000002361F08D81805E883018F03D813111B0
:1020100029C0802F0E94E4180E942719DD2009F4AE
:10202000D3C10E94331880FDCFC1F70112820E94F4
:102030002D180E947916C7010E94F5110E942D18D3
:102040000F900F900F900F900F90DF91CF911F91F5
:102050000F91FF90EF90DF90BF90AF909F908F9087
:102060000C949B16802F0E94F518D6CF49814F7093
:10207000B42E5981507F503219F0B29480EFB822BB
:102080008D81882369F0813029F1112369F10023C2
:1020900059F0F701858180FFA8CF8F70858304C038
:1020A000112361F0011104C08B2D0E94980FB6CF4F
:1020B0008B2D0130D1F70E941119B0CF011106C04C
:1020C0000E9414198B2D0E949F0FA8CF013009F494
:1020D000A5CFF6CF112321F0063008F09FCFE4CF33
:1020E000053008F09BCFEECF002361F38D810E9475
:1020F000490F94CF898186958695837069F08130E8
:1021000009F08CCF8D8199819370111102C090E0FC
:1021100080E00E94700D82CF8D81998193701111A2
:1021200002C090E080E00E945A0D78CF8D8111238B
:1021300029F00E948B1C0E94721D70CF0E94F31C1C
:10214000FACF8981837009F05FC0111167CF2D81AB
:10215000229526952770220F220F8D818F7090E097
:10216000B0E0A0E04C015D01022E04C0880C991C77
:10217000AA1CBB1C0A94D2F7FD8160E070E0CB0181
:10218000F4FF0FC06FE070E080E090E004C0660FE5
:10219000771F881F991F2A95D2F7609570958095B3
:1021A000909529812695269523702D832230B1F0B4
:1021B000233019F19B01AC01282939294A295B29CF
:1021C00029833A834B835C833D8169817A818B814A
:1021D0009C813130B1F00E94061620CF9B01AC01EA
:1021E000282939294A295B2929833A834B835C832F
:1021F000CA01B9010E94301611CF0E940616C5010E
:10220000B4010E94DC150ACF8695112311F0898153
:102210008170882309F402CF2D812295269527709D
:10222000220F220F8D818F7090E0B0E0A0E04C0172
:102230005D01022E04C0880C991CAA1CBB1C0A94C8
:10224000D2F73D8160E070E0CB0134FF0FC06FE05A
:1022500070E080E090E004C0660F771F881F991F30
:102260002A95D2F76095709580959095498146950D
:10227000469543704D834230B1F0433019F19B01D4
:10228000AC01282939294A295B2929833A834B83C0
:102290005C833D8169817A818B819C813130B1F091
:1022A0000E940C17BBCE9B01AC01282939294A2971
:1022B0005B2929833A834B835C83CA01B9010E945D
:1022C0003617ACCE0E940C17C501B4010E94E2166D
:1022D000A5CE3D81323F09F447C080F4303F79F10B
:1022E000313FD9F1832F805E8031D0F0112309F482
:1022F00056C001117ACE89818F7133C04D81433F21
:10230000D1F1443F99F7112309F43FC089818F71BE
:1023100089830E94791663E089810E9437187ECEF6
:102320005D815F705D8389818F71112321F00E942F
:1023300079168D81BACE0E949B168D81C4CE112351
:1023400041F0053008F06ACE89818F710E94C01675
:1023500065CE063008F062CEF7CF89818F711123E8
:1023600039F00E9479165ACE89818F711123C9F3F1
:102370000E949B1653CE112329F089818F710E94F0
:1023800064164CCE0E945A1649CE81E00E94401835
:10239000023008F443CE82E00E9440183FCE011183
:1023A000A5CE89818F71E4CF49814F706D81C701BE
:1023B0000E9475080E94551531CE49814F706D817C
:1023C000C7010E94CB092ACE0F900F900F900F905B
:1023D0000F90DF91CF911F910F91FF90EF90DF90C1
:1023E000BF90AF909F908F9008950F931F93CF93BE
:1023F000DF93EC018B819C81892B29F08881998165
:1024000089238F3F29F4DF91CF911F910F91089578
:10241000CE010E9494088823B1F3688179818A8172
:102420000E9403188C010E9460170E94D115B80108
:10243000CE01DF91CF911F910F910C94A60F0E94B6
:10244000FD180E940E190E94D0180E9427190E94A0
:10245000631E0E94721D90E080E00E945A0D90E081
:1024600080E00C94700D0E94EC180C941F120E94D6
:10247000F717282F892F82958F70903C80F48A302F
:10248000B0F4843020F4823090F480E008958630F7
:10249000E1F781E0203E88F0213FB9F70EC08C3093
:1024A00011F08F3091F793FB882780F9089581E030
:1024B000203F39F018F4203E40F70895243F29F7D3
:1024C000FCCF0895CF93DF9300D000D00F92CDB70B
:1024D000DEB70F900F900F900F900F90DF91CF917C
:1024E0000895CF93DF9300D000D000D0CDB7DEB7F2
:1024F00026960FB6F894DEBF0FBECDBFDF91CF9109
:1025000008951F93CF93DF93E091850116E08091AA
:1025100086018E1304C0DF91CF911F910895CE2FB5
:10252000D0E01E9FF0011124E957FE4F40815181F8
:1025300062817381848195810E947112FE013196BE
:10254000E770E5CF4091B7015091B8016091B901B2
:102550007091BA018091BB019091BC010C947112F1
:102560001F93CF93DF938091BC01807FC1F4809152
:10257000B9018823A1F080918501C0918601609105
:10258000B7017091B8014091BA015091BB01D62FAB
:10259000D723DA01A095B09516E0C81304C0DF91E7
:1025A000CF911F91089590E04115510511F0DF3F43
:1025B00031F401968770F1CF2A0F3B1F17C0189F87
:1025C000F001199FF00D1124E957FE4F21812713C7
:1025D000F0CF20812613EDCF22812111EACF238174
:1025E00034812417350740F3241B350B283C310573
:1025F00000F72091BC012F7020612093BC0126E0E0
:10260000289FF001299FF00D1124E457FE4F80818F
:102610008F708061808387EB91E00E94F511DF91DC
:10262000CF911F910C9481129F92AF92BF92CF9243
:10263000DF92EF92FF920F931F93CF93DF93CDB76B
:10264000DEB72B970FB6F894DEBF0FBECDBF8C015F
:1026500085E0F801DE01179601900D928A95E1F769
:10266000D8014C9111965C9111971296EC901297AB
:102670008091BA019091BB01009709F46BC1209140
:10268000B7013091B801632F62236F3F09F462C133
:102690001396CD90DC909090B901992009F4F8C080
:1026A000C816D90608F43FC0F601E81BF90BCF01A4
:1026B000FF24F394883C910508F0F12C87EBA82EB9
:1026C00081E0B82E8091BC01982F907FFF2009F403
:1026D000B7C0911180C0FE2C35132AC0241328C026
:1026E000E11026C08F7080618093BC010E94A2120D
:1026F000C5010E94F5118091BC01D80115968C93FB
:102700008F2D2B960FB6F894DEBF0FBECDBFDF9195
:10271000CF911F910F91FF90EF90DF90CF90BF90DE
:10272000AF909F900895809590958C0D9D1DC0CF82
:10273000CD2829F0842F85238F3F09F019C180E02F
:10274000B82FB170DB2EE09185012091860136E033
:1027500080FD1CC0EE20A1F28091BC0181608093BD
:10276000BC01F12CCDCF8E2F90E03E9FF0011124C3
:10277000E957FE4F6181651306C06081641303C091
:1027800062816E11E7CFFC013196E770E213EBCF67
:102790004F8358878F8198850E94F717292F22959C
:1027A0002F70903260F0225F2F70223078F49F708B
:1027B00051F0F8019581907F31F4D12C0AC09F70BF
:1027C00011F08823D1F3805E8830B8F3C8010E94ED
:1027D000F511FD2C95CF351306C0241304C0D80184
:1027E000EE2009F47BC04F8358878F8198850E9423
:1027F0003712882309F4B8C0EE2009F4B5C08091DF
:10280000BC01803270F02091B7013091B8013A8359
:1028100029831B82DD82CC828E83CE0101960E94A9
:10282000F51186E0F801A7EBB1E001900D928A95D1
:10283000E1F70E94B0120E94A212FF24F39460CF2D
:10284000911113C07C2DDB86CA866E2D8B850E946C
:10285000621287EB91E00E94F51186E0F50111927A
:102860008A95E9F70E94A2124BCF3513BCCF2413EF
:10287000BACFE110B8CFD80115968C93C8010E9449
:10288000F51186E0F50111928A95E9F7F92C38CF18
:10289000C816D90688F1B601681B790BCB01F12C5B
:1028A000883C910508F047C0FE2CEE2009F45CC07E
:1028B000351330C024132EC08091BC0180FD21C08F
:1028C000982F907FF1F0D80115968C931597903F33
:1028D00039F0982F907F905F8F70892B15968C938D
:1028E000C8010E94F51186E0F801A7EBB1E0019064
:1028F0000D928A95E1F7B6CF809590958C0D9D1D30
:10290000CECF86E0F801A7EBB1E001900D928A9559
:10291000E1F7F6CE4F8358878F8198850E94371252
:1029200081117FCF8091BC0181608093BC01C8017F
:102930000E94F511E5CE7C2DDB86CA866E2D8B8537
:102940000E94621286E0E7EBF1E0DF011D928A95BA
:10295000E9F788CFEE2041F04F8358878F81988523
:102960000E94371281115DCFC8010E94F51165CF19
:1029700081E08E25E5CE1F93CF93DF93CDB7DEB7F1
:102980002C970FB6F894DEBF0FBECDBF4F8358878C
:1029900069877A878B879C87CE0107960E941413DC
:1029A000882369F08A859B85892B39F04F8158856A
:1029B000842F85238F3F09F071C016E05FC086E049
:1029C000FE013796DE01119601900D928A95E1F78E
:1029D0008A859B85892B89F388859F8189238F3FF1
:1029E00061F32091860130E0C90101968770992733
:1029F000409185014817190671F40E943312109214
:102A000086011092850186E0E7EBF1E0DF011D927F
:102A10008A95E9F7D2CF96E0929FD001939FB00DAF
:102A20001124A957BE4FFE01319601900D929A953F
:102A3000E1F7809386010E948112BFCF819FC00180
:102A4000112489579E4F0E9414138823E9F0E091C6
:102A500085011E9FF0011124E957FE4F40815181ED
:102A600062817381848195810E94711280918501B8
:102A700090E0019687709927809385018091850168
:102A8000909186018913DACF2C960FB6F894DEBFA9
:102A90000FBECDBFDF91CF911F91089569857A85D3
:102AA0008B859C850E94711288CFEF92FF920F93C5
:102AB0001F93CF93DF938C01892B89F0F12CEE24A7
:102AC000E394E8012196F8018491843709F457C012
:102AD000A0F4823009F43EC048F48130D1F0DF9197
:102AE000CF911F910F91FF90EF9008959CEF980F59
:102AF0009037A8F70E946D0E0AC0853709F44CC0C4
:102B00009CE7980F903758F78F770E94490F8E01F6
:102B100016C00E5F1F4FFE01849190E2980F98300F
:102B200060F48770FE2D01C0FF0F8A95EAF78F2FA2
:102B30000E9400190E94271902C00E946D0E8F2D5D
:102B4000815008F4BECFEFE9FFE03197F1F700C004
:102B50000000F6CF0E5F1F4FFE01849190E2980FA8
:102B6000983050F48770FE2D01C0FF0F8A95EAF768
:102B70008F2F0E940619DECF0E94490FE0CF0E5F13
:102B80001F4FFE01C491C150D0F28FE99FE0019721
:102B9000F1F700C00000F7CF0E5F1F4FFE01F49069
:102BA000CECF0895609307027093080280930902C4
:102BB00090930A020C941F12CF93DF9300D000D0A1
:102BC000CDB7DEB769837A838B839C8380910702BC
:102BD00090910802A0910902B0910A0229813A81DC
:102BE0004B815C81822B932BA42BB52B8093070206
:102BF00090930802A0930902B0930A020F900F90DD
:102C00000F900F90DF91CF910C941F12CF93DF9311
:102C100000D000D0CDB7DEB769837A838B839C83E5
:102C20008091070290910802A0910902B0910A02D6
:102C300029813A814B815C8182239323A423B5238C
:102C40008093070290930802A0930902B0930A02AE
:102C50000F900F900F900F90DF91CF910C941F1257
:102C6000CF93DF9300D000D0CDB7DEB769837A83EE
:102C70008B839C838091070290910802A0910902A6
:102C8000B0910A0229813A814B815C818227932786
:102C9000A427B5278093070290930802A093090206
:102CA000B0930A020F900F900F900F90DF91CF9189
:102CB0000C941F121092030210920402109205024B
:102CC000109206020C941F1241E050E060E070E0A8
:102CD00004C0440F551F661F771F8A95D2F7409393
:102CE00003025093040260930502709306020C9451
:102CF0001F12282F81E090E0A0E0B0E004C0880F10
:102D0000991FAA1FBB1F2A95D2F740910302509129
:102D100004026091050270910602842B952BA62B6C
:102D2000B72B8093030290930402A0930502B09303
:102D300006020C941F1241E050E060E070E004C015
:102D4000440F551F661F771F8A95D2F740955095FF
:102D5000609570958091030290910402A091050204
:102D6000B091060284239523A623B7238093030200
:102D700090930402A0930502B09306020C941F12D4
:102D8000282F81E090E0A0E0B0E004C0880F991FF8
:102D9000AA1FBB1F2A95D2F740910302509104024B
:102DA000609105027091060284279527A627B72710
:102DB0008093030290930402A0930502B09306024D
:102DC0000C941F12CF93DF9300D000D0CDB7DEB7A5
:102DD00069837A838B839C838091030290910402A0
:102DE000A0910502B091060229813A814B815C8154
:102DF000822B932BA42BB52B809303029093040278
:102E0000A0930502B09306020F900F900F900F90C1
:102E1000DF91CF910C941F12CF93DF9300D000D09D
:102E2000CDB7DEB769837A838B839C83809103025D
:102E300090910402A0910502B091060229813A8185
:102E40004B815C8182239323A423B52380930302C7
:102E500090930402A0930502B09306020F900F9086
:102E60000F900F90DF91CF910C941F12CF93DF93AF
:102E700000D000D0CDB7DEB769837A838B839C8383
:102E80008091030290910402A0910502B091060284
:102E900029813A814B815C8182279327A427B5271A
:102EA0008093030290930402A0930502B09306025C
:102EB0000F900F900F900F90DF91CF910C941F12F5
:102EC00008959295907FE92FE80F877041E001C047
:102ED000440F8A95EAF7E695E695E69585E0E89F42
:102EE000F0011124E354FE4F30E020E070E05191F6
:102EF000DF011197CB01022E02C0969587950A94A7
:102F0000E2F7817081958527842385278C932F5F35
:102F10003F4F2530310559F70895E92FE295E07FBD
:102F2000E80F982F9770E695E695E69585E0E89F7F
:102F3000F0011124E354FE4F50E040E080E0219185
:102F400030E0092E02C0369527950A94E2F72170E9
:102F50003327042E01C0220F0A94EAF7822B4F5F19
:102F60005F4F4530510559F70895BF92CF92DF92D8
:102F7000EF92FF920F931F93CF93DF938C01C0903A
:102F80000302D0900402E0900502F09006028091C6
:102F9000070290910802A0910902B0910A02C82A82
:102FA000D92AEA2AFB2ACFE1D0E0BC2ED701C601FC
:102FB0000C2E04C0B695A795979587950A94D2F7DD
:102FC00080FD0EC0219788F7B12C8B2DDF91CF911A
:102FD0001F910F91FF90EF90DF90CF90BF900895D9
:102FE000B8018C2F0E94E909019761F3EECFCF93CE
:102FF000DF93D82FC92F0E94B5176D2F7C2FDF913B
:10300000CF910C94E9091F93CF93DF93162FD72FFD
:1030100090918401992339F0862F972FDF91CF91DA
:103020001F910C94F717882391F0862F972F0E94F9
:10303000B517C82F682F812F9D2F0E946117612F10
:103040007D2F8C2FDF91CF911F910C94E909862F52
:10305000972F0E948D17C82FF2CF80910B02859574
:1030600085958595089580910B028770089598E065
:10307000899F90011124622B60930B020C947916A6
:1030800090910B028095892380930B02282F277043
:1030900061F4282F082E000C330B9217130629F029
:1030A0008595859585950C949B16089590910B02B6
:1030B000977081E009F480E00895909112019923BE
:1030C000E1F09091610297FF18C0E82FE695E69530
:1030D000E695EF3139F12091000130910101E20FC5
:1030E000F32FF11D877021E030E001C0220F8A9597
:1030F000EAF78181822B818308952091000130912C
:103100000101F90132969FEF40E05191851751F08E
:103110009F3F19F4511101C0942F4F5F4E31A9F711
:103120009F3F09F40895290F311D97FD3A95F90144
:103130008283089590911201992301F19091610287
:1031400097FF1CC0E82FE695E695E695EF3139F13B
:103150002091000130910101E20FF32FF11D8770E2
:1031600021E030E0A90102C0440F551F8A95E2F723
:10317000CA0180959181892381830895209100015E
:1031800030910101F9013296205E3F4F91918913F0
:1031900003C0DF0111971C92E217F307B9F70895F6
:1031A00081E090E0E0910001F0910101E80FF91F4A
:1031B0001082019680329105A9F7089590912F020F
:1031C000982B90932F020895982F909580912F021D
:1031D000892380932F02089510922F0208959091D1
:1031E0002E02982B90932E020895982F90958091FF
:1031F0002E02892380932E02089510922E020895A4
:1032000090912D02982B90932D020895982F9095D0
:1032100080912D02892380932D02089510922D0212
:10322000089580930C02089510920C020895209145
:10323000000130910101F9013196205E3F4F80E09D
:10324000919191118F5FE217F307D1F70895E09103
:103250000001F091010180912F028083E091000133
:10326000F0910101808190912E02892B8083E09161
:103270000001F0910101808190912D02892B8083C2
:1032800090910C02992361F0E0910001F09101010D
:103290008081892B80830E941719811110920C0262
:1032A00080910001909101010C94440D6DEE7EEF30
:1032B00090E080E00E94CE2660E082E090E00E94F4
:1032C000BC2660E083E090E00E94BC2660E084E0E1
:1032D00090E00E94BC2660E085E090E00C94BC2663
:1032E00090E080E00E94B6269C0181E02D3E3E4F9A
:1032F00009F080E0089582E090E00C94AE26682FFB
:1033000082E090E00C94BC2683E090E00C94AE2622
:10331000682F83E090E00C94BC2684E090E00C944D
:10332000AE26682F84E090E00C94BC268091670262
:10333000843039F11092310288E190E020E40FB638
:10334000F894A895809360000FBE2093600080E001
:103350000E94C90983B7817F846083BF83B781607E
:1033600083BF7894889583B78E7F83BF0FB6F89418
:10337000A895809160008861809360001092600041
:103380000FBE089508950895CF930E94C2190E9418
:10339000740C0E94C319C0E08C2F0E94290D892B48
:1033A00031F4CF5FC730C1F780E0CF91089581E05D
:1033B000FCCF0E9433120E94380D0C94C9091F9251
:1033C0001FB61F9211248F939F93AF93BF93809149
:1033D0003102811113C080915D0290915E02A09133
:1033E0005F02B09160024196A11DB11D80935D0204
:1033F00090935E02A0935F02B0936002BF91AF9181
:103400009F918F911F901FBE1F90189582E084BDE1
:1034100093E095BD9AEF97BD80936E0008952FB706
:10342000F89480915D0290915E02A0915F02B0914C
:1034300060022FBF0895CF92DF92EF92FF929C011E
:103440004FB7F89480915D0290915E02A0915F0267
:10345000B09160024FBF6C017D01EE24FF24A901F1
:1034600070E060E0C416D506E606F70638F0821B69
:10347000930BFF90EF90DF90CF9008950197F7CFD7
:103480001F921FB61F9211248F939F93AF93BF93E8
:1034900080915D0290915E02A0915F02B091600206
:1034A0000196A11DB11D80935D0290935E02A093D1
:1034B0005F02B0936002BF91AF919F918F911F9077
:1034C0001FBE1F9018950E945722F8942FEF87EA8D
:1034D00091E6215080409040E1F700C0000087E075
:1034E00090EBDC018093700290937102A0937202C2
:1034F000B093730288E19CE00FB6F894A89580938E
:1035000060000FBE90936000FFCFAF92BF92CF924A
:10351000DF92EF92FF920F931F93CF93C0E0AA2404
:10352000A394B12CE82EF12C8C2F0E94290D6C0154
:1035300010E000E0C501002E02C0880F991F0A9418
:10354000E2F78C219D21892B99F0602F7C2F80E060
:103550000E94CC09E816F90659F481E0CF911F9139
:103560000F91FF90EF90DF90CF90BF90AF900895B4
:103570000F5F1F4F00311105E9F6CF5FC730A1F68D
:1035800080E0ECCFCF93C82F8CE20E94851A88236D
:1035900021F08C2FCF910C94851A80E0CF91089563
:1035A000CF93DF9300D000D0CDB7DEB70E94701963
:1035B000811102C00E94561995E6998308C00E94A5
:1035C000740C8FE39CE90197F1F700C00000A9811A
:1035D000A150A983A111F3CF89E20E94C21A8111DF
:1035E00010C18AE20E94C21A81110E94561985E018
:1035F0000E94C21A81110E94631A0E947B19809353
:10360000300287E00E94C21A882371F08BE10E9489
:10361000C21A882309F4D1C090913002892F8D7F7E
:1036200091FF826080933002809130020E947F1966
:103630000E948D1990E0909362028093610280EE67
:103640000E94C21A882341F090916102892F8E7FD7
:1036500090FF81608093610289E30E94C21A8823EF
:1036600041F090916102892F8D7F91FF826080935C
:10367000610282EE0E94C21A882341F09091610299
:10368000892F8B7F92FF84608093610286EE0E9477
:10369000C21A882341F090916102892F877F93FF9E
:1036A00088608093610283EE0E94C21A882341F0F1
:1036B00090916102892F8F7E94FF806180936102D7
:1036C00085E30E94C21A882341F090916102892FFC
:1036D0008F7D95FF80628093610281E30E94C21A10
:1036E000882341F090916102892F8F7B96FF80643F
:1036F0008093610281E10E94C21A882341F0909177
:103700006102892F97FB87F980588093610280912D
:1037100061020E94911987E20E94C21A89838EE198
:103720000E94C21A882319F0B981B260B9838FE16F
:103730000E94C21A882319F029812460298380E21B
:103740000E94C21A882319F039813860398381E2D6
:103750000E94C21A882319F049814061498382E29C
:103760000E94C21A882319F059815062598383E25A
:103770000E94C21A882319F089818064898384E2B7
:103780000E94C21A8823B1F1998190689983898136
:103790000E9488193981232F30E050E040E02983CE
:1037A0003A834B835C83CA01B9010F900F900F904D
:1037B0000F90DF91CF910C94D2158EE00E94C21A27
:1037C000882339F090913002892F8B7F92FF84609B
:1037D00029CF80E10E94C21A90913002882329F0FB
:1037E000892F877F93FF88601DCF892F8E7F90FF61
:1037F000816018CFA981A111CACF0E948419282FF6
:10380000CBCF0F900F900F900F90DF91CF91089535
:103810008091340280FF12C06091050185E0689FAD
:10382000B001112475956795759567956038710598
:10383000A8F561157105A1F1862F089581FF09C0D2
:103840006091050185E0689FB00111247595679529
:10385000EDCF6091050182FD0AC080913502882379
:10386000D1F09091040160910501891728F085E05D
:10387000689FB0011124DACF869FB001112485E042
:10388000869F9001879F300D1124692F70E0C90138
:103890000E948026CBCF65E070E0CECF8FE7089501
:1038A00081E008958091340280FF0CC06091030193
:1038B00070E075956795759567956115710549F186
:1038C000862F089581FF06C06091030170E0759511
:1038D0006795F3CF6091030182FD0BC09091350293
:1038E0009923A1F06091020180910301961738F0AD
:1038F000682F70E06038710500F38FE70895899FA5
:10390000C001112470E00E948026F4CF61E070E0D5
:10391000D7CF81E00895803F31F40E94081C819543
:10392000809338020895813F19F40E94081CF8CF53
:10393000823F31F40E94081C8195809337020895DC
:10394000833F19F40E94081CF8CF893F29F40E9494
:10395000521C8093390208958A3F21F40E94521C20
:103960008195F7CF8B3F31F40E94521C8195809353
:103970003A0208958C3F19F40E94521CF8CF843FFC
:1039800031F4809136028160809336020895853F3C
:1039900021F4809136028260F7CF863F21F4809136
:1039A00036028460F1CF873F21F48091360288602F
:1039B000EBCF883F21F4809136028061E5CF8D3FC7
:1039C00031F48091340281608093340208958E3FF7
:1039D00021F4809134028260F7CF8F3FB9F7809154
:1039E00034028460F1CF90913702803F41F480919E
:1039F000380287FD10923802992371F00895813FB3
:103A000029F4809138021816ACF3F6CF823F81F486
:103A100097FFF2CF109237028091380290913902CD
:103A2000892B90913A02892B49F71092350208951B
:103A3000833F19F4191674F3DFCF893F39F480916D
:103A400039021816CCF610923902D6CF8A3F29F4E3
:103A50008091390287FFD0CFF6CF8B3F39F4809128
:103A60003A0287FFC9CF10923A02C6CF8C3F29F4A1
:103A700080913A021816BCF3BFCF843F31F4809195
:103A800036028E7F80933602B7CF853F21F4809136
:103A900036028D7FF7CF863F21F4809136028B7FEF
:103AA000F1CF873F21F480913602877FEBCF883FAB
:103AB00021F4809136028F7EE5CF8D3F31F48091E5
:103AC00034028E7F8093340297CF8E3F21F4809111
:103AD00034028D7FF7CF8F3F09F08ECF8091340273
:103AE0008B7FF0CF86E392E00E944F0D0E940F1A69
:103AF000909333028093320208951F93CF93DF9304
:103B000000D000D000D0CDB7DEB7809132029091C6
:103B100033020E941B1AAC018091350220910601EC
:103B200030E0811106C0209107019AE0299F9001A1
:103B300011244217530788F020913702A0913802D0
:103B4000A98310913902B0913A02BE8321110FC0AE
:103B50009A2F912B9B2B09F0B2C026960FB6F894A2
:103B6000DEBF0FBECDBFDF91CF911F9108958F3F74
:103B700019F08F5F80933502121624F40E94081CFE
:103B8000809337028091370287FF05C00E94081C8E
:103B90008195809337022981121624F40E94081C13
:103BA000809338028091380287FF05C00E94081C6C
:103BB00081958093380280913702882309F455C09B
:103BC000309138023D83332309F44FC0282F880FEA
:103BD000330B440B550B29833A834B835C83CA0117
:103BE000B9010E94872523E333E343E35FE369835D
:103BF0007A838B839C8369817A818B819C810E94EB
:103C0000EB2569837A838B839C8369817A818B819D
:103C10009C810E944F25609337028D81082E000CF5
:103C2000990BAA0BBB0B89839A83AB83BC83BC0122
:103C3000CD010E94872523E333E343E35FE36983F8
:103C40007A838B839C8369817A818B819C810E949A
:103C5000EB2569837A838B839C8369817A818B814D
:103C60009C810E944F2560933802111624F40E9413
:103C7000521C809339028091390287FF05C00E944F
:103C8000521C8195809339029E81191624F40E945A
:103C9000521C80933A0280913A0287FF05C00E942D
:103CA000521C819580933A0226960FB6F894DEBF97
:103CB0000FBECDBFDF91CF911F910C94721D8F3F2E
:103CC00009F057CF68CF85E0E6E3F2E0DF011D920F
:103CD0008A95E9F710923502109234020895809186
:103CE0005B020895CF93DF9300D00F92CDB7DEB77C
:103CF00020916702243019F523E029838A839B836E
:103D00002093E9008FEF9091E800815095FD06C067
:103D100095ED9A95F1F700008111F5CF8091E800BB
:103D200085FF0DC050E040E063E070E0CE010196F9
:103D30000E94CF208091E8008E778093E8000F905A
:103D40000F900F90DF91CF910895CF93DF9300D024
:103D50000F92CDB7DEB79C0180916702843031F5B8
:103D600082E08983205831093B832A8383E0809352
:103D7000E9008FEF9091E800815095FD06C095ED28
:103D80009A95F1F700008111F5CF8091E80085FF49
:103D90000DC050E040E063E070E0CE0101960E946B
:103DA000CF208091E8008E778093E8000F900F90ED
:103DB0000F90DF91CF910895209167022430F1F4A4
:103DC00022E02093E9002FEF3091E800215035FDEB
:103DD00006C035ED3A95F1F700002111F5CF20919D
:103DE000E80025FF0BC050E040E065E070E00E9475
:103DF000CF208091E8008E778093E8000895CF93DC
:103E0000DF93D82FC92F809167028430F1F490910D
:103E100012019923E9F09091610297FF19C08093F4
:103E2000E9008FEF9091E800815095FD06C095E183
:103E30009A95F1F700008111F5CF8091E80050E0EC
:103E400040E060E270E085FD1AC0DF91CF910895F7
:103E500081E08093E9008FEF9091E800815095FD1B
:103E600006C095ED9A95F1F700008111F5CF80918C
:103E7000E80085FFEACF50E040E068E070E08D2F79
:103E80009C2F0E94CF208091E8008E778093E800DD
:103E900080E2ED2FFC2FABE3B2E001900D928A950A
:103EA000E1F7D3CF80916602811109C00E945722A9
:103EB0000E94B4228091E20084608093E200089521
:103EC000109266020895089508950C94D91942E05D
:103ED00061EC81E00E94D32142E061EC82E00E942B
:103EE000D32142E061EC83E00E94D32142E261EC05
:103EF00084E00C94D32180916902893089F148F4DF
:103F0000823009F494C0833009F44FC0813041F00D
:103F100008958A3009F47BC08B3009F461C008959C
:103F200080916802813A09F03FC08091E800877F64
:103F30008093E80080916C0290916D02892B61F46E
:103F400060E28BE392E070E00E941E218091E80025
:103F50008B778093E800089560E090E080E0F3CFF5
:103F600080916802813201F580916C0290916D021E
:103F7000009711F00397C1F48091E800877F809348
:103F8000E8008091E80082FF0BC08091F1008093EF
:103F90005B028091E8008B778093E8000C94072205
:103FA000809167028111EDCF089580916802813A76
:103FB000D9F780916C0290916D02892BA9F78091BD
:103FC000E800877F8093E8008091E80080FFFCCFC5
:103FD000809112018093F1008091E8008E77DCCF10
:103FE00080916802813201F780916C0290916D029C
:103FF000892BD1F68091E800877F8093E8000E94AA
:10400000072280916A02809312010C9433128091EE
:104010006802813249F68091E800877F8093E8004A
:104020000E94072280916B0280935C020895809128
:104030006802813A09F0B8CF8091E800877F8093C9
:10404000E8008091E80080FFFCCF80915C02C2CF45
:1040500084B7877F84BF0FB6F894A89580916000DD
:10406000886180936000109260000FBE80E88093AA
:104070006100109261000E94870D0E9457220E94E9
:10408000B4228091E20084608093E20078940E94E0
:1040900034250E94890D88E091E00E94330D8091C3
:1040A0006702853019F00E948F0DF9CF0E94961992
:1040B00080916502882399F30E94C419882379F3BB
:1040C0000E94B920ECCF9C01DA01892F9927833017
:1040D0009105C1F068F48130910509F445C002975B
:1040E00061F48DE690E02CED3EE02D933C93089535
:1040F00081329105E1F0829739F190E080E030E083
:1041000020E0F3CFC9019927213059F08230910581
:1041100059F0E8EDFEE0892B81F7849190E09F0152
:10412000E4CFE0ECFEE0F9CFECEAFEE0F6CF64305D
:1041300020F7E62FF0E0EE0FFF1FEA5CFE4F208134
:10414000318189E090E0D1CF6430B8F670E0FB01B6
:10415000EE0FFF1FE25DFE4F20813181665D7E4FD5
:10416000FB01808190E0C1CF82E190E029E43FE053
:10417000BCCF80E189BD82E189BD09B400FEFDCFDD
:104180008091D8008F7D8093D8008091E00082607C
:104190008093E0008091E00081FDFCCF0895AF9214
:1041A000BF92CF92DF92FF920F931F93CF93DF9333
:1041B0006C01EB018A010E942622F82E811123C096
:1041C0000115110539F0F80180819181C81BD90BC7
:1041D000C80ED91EB12CA12C2097A9F08091E8001F
:1041E00085FD22C08091E8008E778093E80001155C
:1041F0001105A1F0F80180819181A80EB91EB1824C
:10420000A08285E0F82E8F2DDF91CF911F910F9125
:10421000FF90DF90CF90BF90AF9008950E9426222C
:104220008823D1F2F82EEFCFF60181916F018093B0
:10423000F1002197FFEFAF1ABF0ACECFFC01CB01EF
:1042400020916E0230916F022617370790F0009789
:1042500029F42091E8002E772093E80040E00097B1
:1042600051F4411108C08091E80082FF31C080E024
:104270000895C901F3CF209167022223A9F12530C7
:10428000A9F12091E80023FD2DC02091E80022FD36
:10429000EACF2091E80020FFE2CF3091F300209197
:1042A000F200009719F02830310558F041E028302D
:1042B000310509F040E02091E8002E772093E800D6
:1042C000CECF41914093F10001972F5F3F4FE9CF4F
:1042D00080916702882341F0853041F08091E800A9
:1042E00083FFC1CF81E0089582E0089583E00895BF
:1042F000FC01CB0120916E0230916F022617370727
:1043000090F0009729F42091E8002E772093E800A0
:1043100040E0009751F4411108C08091E80082FF0D
:1043200032C080E00895C901F3CF209167022223B3
:10433000B1F12530B1F12091E80023FD2EC020918C
:10434000E80022FDEACF2091E80020FFE2CF309183
:10435000F3002091F200009719F02830310558F051
:1043600041E02830310509F040E02091E8002E7747
:104370002093E800CECF44914093F100319601970D
:104380002F5F3F4FE8CF80916702882341F085304F
:1043900041F08091E80083FFC0CF81E0089582E082
:1043A000089583E00895982F973028F08F708093B8
:1043B000E90081E008959093E900242F762F50E0E2
:1043C000981731F07091EC002091ED005091F000C1
:1043D00021FD02C09F5FE8CF3091EB003E7F30931C
:1043E000EB003091ED003D7F3093ED003091EB001C
:1043F00031603093EB007093EC002093ED0050930C
:10440000F0002091EE0027FDE5CF80E00895809137
:10441000680287FF13C08091E80082FF06C0809188
:10442000E8008B778093E80004C0809167028111D7
:10443000F2CF0895809167028823D9F38091E80034
:1044400080FFF8CF8091E8008E77ECCF2091E400D8
:104450003091E50095E6A9012091EC00822F817052
:1044600020FF06C08091E80080FF06C080E008952C
:104470002091E80022FD1AC080916702882389F00C
:10448000853089F08091EB0085FD0FC02091E4001C
:104490003091E50042175307F9F29150E1F684E0BC
:1044A000089582E0089583E0089581E008950E94D0
:1044B000C5220E94CD22E0EEF0E080818160808301
:1044C000E8EDF0E080818F77808319BCA7EDB0E044
:1044D0008C918E7F8C9380818F7E80831092660278
:1044E00008950F931F93CF93DF930E94C5220E94DC
:1044F000CD22C8EDD0E088818F778883888180685D
:10450000888388818F7D888319BC109267021092FE
:104510006302109265021092640200EE10E0F8014E
:1045200080818B7F808388818160888342E060E026
:1045300080E00E94D321E1EEF0E080818E7F8083D5
:10454000E2EEF0E0808181608083808188608083FA
:10455000F80180818E7F8083888180618883DF91EC
:10456000CF911F910F910895E8EDF0E080818F7E4B
:104570008083E7EDF0E080818160808384E082BF0A
:1045800081E0809366020C947122E8EDF0E0808176
:104590008E7F80831092E20008951092DA001092CC
:1045A000E10008951F920F920FB60F9211242F93DE
:1045B0003F934F935F936F937F938F939F93AF93AB
:1045C000BF93EF93FF938091E10082FF0BC0809136
:1045D000E20082FF07C08091E1008B7F8093E100C1
:1045E0000E9433258091DA0080FF19C08091D800A5
:1045F00080FF15C08091DA008E7F8093DA00809171
:10460000D90080FF94C080E189BD82E189BD09B4F1
:1046100000FEFDCF81E0809367020E94521F8091CF
:10462000E10080FF19C08091E20080FF15C08091F9
:10463000E2008E7F8093E2008091E20080618093AF
:10464000E2008091D80080628093D80019BC85E098
:10465000809367020E94641F8091E10084FF29C05B
:104660008091E20084FF25C080E189BD82E189BD9F
:1046700009B400FEFDCF8091D8008F7D8093D800D3
:104680008091E1008F7E8093E1008091E2008F7E37
:104690008093E2008091E20081608093E20080914B
:1046A0006302882309F449C084E0809367020E9472
:1046B000651F8091E10083FF29C08091E20083FFA4
:1046C00025C08091E100877F8093E10082E08093A4
:1046D0006702109263028091E1008E7F8093E10077
:1046E0008091E2008E7F8093E2008091E200806101
:1046F0008093E20042E060E080E00E94D32180915C
:10470000F00088608093F0000E94631FFF91EF919A
:10471000BF91AF919F918F917F916F915F914F91D9
:104720003F912F910F900FBE0F901F90189519BCBD
:10473000109267020E94601F72CF8091E30087FD94
:1047400002C081E0B2CF83E0B0CF1F920F920FB6CC
:104750000F9211242F933F934F935F936F937F9307
:104760008F939F93AF93BF93CF93DF93EF93FF9379
:10477000D091E900DF708091EC00C82FC17080FDFE
:10478000C0E81092E9008091F000877F8093F000EC
:1047900078940E94E9231092E9008091F0008860EB
:1047A0008093F000CD2BCF70C093E900FF91EF9183
:1047B000DF91CF91BF91AF919F918F917F916F9139
:1047C0005F914F913F912F910F900FBE0F901F90CF
:1047D00018951F93CF93DF93CDB7DEB7AA970FB687
:1047E000F894DEBF0FBECDBF88E692E0FC010196D3
:1047F0002091F100208322E080379207B9F70E94D0
:104800007B1F8091E80083FF16C180916802909120
:1048100069029A3008F00FC1E92FF0E0E85FF84D27
:104820000C949426803881F0823809F004C180917C
:104830006C028F708093E9008091EB0085FB8827E4
:1048400080F91092E90006C080916402909165029F
:10485000911182609091E800977F9093E800809397
:10486000F1001092F1008091E8008E77E0C088237B
:1048700009F4CEC0823009F0DEC080916A02811155
:10488000D1C080916C028F7009F4D5C08093E9008B
:104890002091EB0020FFC6C0933031F48091EB00F3
:1048A00080628093EB00BEC09091EB00906190938A
:1048B000EB0021E030E001C0220F8A95EAF7209357
:1048C000EA001092EA008091EB008860EACF811143
:1048D000B2C010916A021F778091E3008078812B2B
:1048E0008093E3008091E800877F8093E8000E9436
:1048F00007228091E80080FFFCCF8091E300806870
:104900008093E30082E0111183E08093670293C0FB
:104910008058823008F08FC080916A0290916B02BB
:104920008C3D23E09207A1F583E08A838AE28983A4
:104930004FB7F894DE01139620E03EE051E2E32FFA
:10494000F0E050935700E49120FF03C0E295EF7030
:104950003F5FEF708E2F90E0EA30C0F0C7968D93E6
:104960009D932F5F243159F74FBF8091E800877FD7
:104970008093E8006AE270E0CE0101960E941E2159
:104980008091E8008B778093E80055C0C096E7CF10
:10499000AE014F5F5F4F60916C020E946320BC01CB
:1049A000892B09F448C08091E800877F8093E80054
:1049B00089819A810E947821E3CF8038E1F5809146
:1049C000E800877F8093E800809163028093F10084
:1049D0004ACF811130C090916A02923060F5809187
:1049E000E800877F8093E800909363020E9407228B
:1049F00080916302882311F084E005C08091E30078
:104A000087FDFACF81E0809367020E94671F13C081
:104A100080916A02813079F481E0933009F080E07E
:104A2000809365021092E9008091E800877F80936F
:104A3000E8000E9407228091E80083FF0AC080916D
:104A4000E800877F8093E8008091EB00806280938C
:104A5000EB00AA960FB6F894DEBF0FBECDBFDF9174
:104A6000CF911F9108950895CF9380916702882375
:104A7000A1F0C091E900CF709091EC00892F817076
:104A800090FD80E8C82B1092E9008091E80083FD3A
:104A90000E94E923CF70C093E900CF9108950E944E
:104AA00056256894B1110C94E52508950E94CA25F5
:104AB00088F09F5798F0B92F9927B751B0F0E1F0DF
:104AC000660F771F881F991F1AF0BA95C9F714C08F
:104AD000B13091F00E94E425B1E008950C94E425F2
:104AE000672F782F8827B85F39F0B93FCCF38695C8
:104AF00077956795B395D9F73EF490958095709525
:104B000061957F4F8F4F9F4F0895E89409C097FBA1
:104B10003EF490958095709561957F4F8F4F9F4F94
:104B20009923A9F0F92F96E9BB279395F6958795D8
:104B300077956795B795F111F8CFFAF4BB0F11F49B
:104B400060FF1BC06F5F7F4F8F4F9F4F16C0882342
:104B500011F096E911C0772321F09EE8872F762F78
:104B600005C0662371F096E8862F70E060E02AF0B9
:104B70009A95660F771F881FDAF7880F96958795A5
:104B800097F9089557FD9058440F551F59F05F3F0E
:104B900071F04795880F97FB991F61F09F3F79F05F
:104BA00087950895121613061406551FF2CF4695E1
:104BB000F1DF08C0161617061806991FF1CF869563
:104BC0007105610508940895E894BB276627772747
:104BD000CB0197F908950E94FE250C946F260E9440
:104BE000612638F00E94682620F0952311F00C947D
:104BF00058260C945E2611240C94E5250E94C225AB
:104C000070F3959FC1F3950F50E0551F629FF0011F
:104C1000729FBB27F00DB11D639FAA27F00DB11D38
:104C2000AA1F649F6627B00DA11D661F829F2227C1
:104C3000B00DA11D621F739FB00DA11D621F839F48
:104C4000A00D611D221F749F3327A00D611D231F1E
:104C5000849F600D211D822F762F6A2F11249F576C
:104C600050409AF0F1F088234AF0EE0FFF1FBB1F6F
:104C7000661F771F881F91505040A9F79E3F51052E
:104C800080F00C9458260C94E5255F3FE4F3983EA1
:104C9000D4F3869577956795B795F795E7959F5FD8
:104CA000C1F7FE2B880F911D9695879597F908956A
:104CB00097F99F6780E870E060E008959FEF80ECCF
:104CC000089500240A941616170618060906089572
:104CD00000240A9412161306140605060895092ED8
:104CE0000394000C11F4882352F0BB0F40F4BF2B47
:104CF00011F460FF04C06F5F7F4F8F4F9F4F089587
:104D000097FB072E16F4009407D077FD09D00E9478
:104D10009A2607FC05D03EF4909581959F4F089503
:104D2000709561957F4F0895EE0FFF1F0590F491E8
:104D3000E02D0994AA1BBB1B51E107C0AA1FBB1F92
:104D4000A617B70710F0A61BB70B881F991F5A9517
:104D5000A9F780959095BC01CD010895F999FECFF2
:104D600092BD81BDF89A992780B50895A8E1B0E079
:104D700042E050E00C94D626262FF999FECF92BD42
:104D800081BDF89A019700B4021639F01FBA20BD10
:104D90000FB6F894FA9AF99A0FBE08950196272F44
:104DA0000E94BD260C94BC26DC01CB01FC01F999C4
:104DB000FECF06C0F2BDE1BDF89A319600B40D9267
:104DC00041505040B8F70895F894FFCF3409400996
:104DD000440948094C095009540958095C096009FB
:104DE000640968096C097009740978097C098009EB
:104DF000DE0FDE0F361036107A1096100E100E10E1
:104E0000A1100E1069116911D4110E100E10DD11D0
:104E1000122437241B2537241B25672488241B25AF
:044E2000DD24E92480
:104E24000D022808140A321E6F1EFF1EDC1EA51E6A
:104E3400721E0195F06797F1669396F4F5369235F4
:104E440091F631C6F73494903332404D3639171009
:0E4E5400CA0F940F5B0FEE0E070F200F390FE1
:00000001FF
